{
  "_format": "hh-sol-artifact-1",
  "contractName": "MultiPlayerTicTacToe",
  "sourceName": "contracts/MultiPlayerTicTacToe.sol",
  "abi": [
    {
      "inputs": [],
      "stateMutability": "nonpayable",
      "type": "constructor"
    },
    {
      "anonymous": false,
      "inputs": [],
      "name": "GameDraw",
      "type": "event"
    },
    {
      "anonymous": false,
      "inputs": [
        {
          "indexed": true,
          "internalType": "address",
          "name": "winner",
          "type": "address"
        }
      ],
      "name": "GameWon",
      "type": "event"
    },
    {
      "anonymous": false,
      "inputs": [
        {
          "indexed": true,
          "internalType": "address",
          "name": "player",
          "type": "address"
        },
        {
          "indexed": false,
          "internalType": "uint8",
          "name": "row",
          "type": "uint8"
        },
        {
          "indexed": false,
          "internalType": "uint8",
          "name": "col",
          "type": "uint8"
        }
      ],
      "name": "MoveMade",
      "type": "event"
    },
    {
      "inputs": [
        {
          "internalType": "uint8",
          "name": "",
          "type": "uint8"
        },
        {
          "internalType": "uint8",
          "name": "",
          "type": "uint8"
        }
      ],
      "name": "board",
      "outputs": [
        {
          "internalType": "address",
          "name": "",
          "type": "address"
        }
      ],
      "stateMutability": "view",
      "type": "function"
    },
    {
      "inputs": [],
      "name": "gameEnded",
      "outputs": [
        {
          "internalType": "bool",
          "name": "",
          "type": "bool"
        }
      ],
      "stateMutability": "view",
      "type": "function"
    },
    {
      "inputs": [],
      "name": "getBoardState",
      "outputs": [
        {
          "internalType": "address[3][3]",
          "name": "",
          "type": "address[3][3]"
        }
      ],
      "stateMutability": "view",
      "type": "function"
    },
    {
      "inputs": [],
      "name": "lastPlayer",
      "outputs": [
        {
          "internalType": "address",
          "name": "",
          "type": "address"
        }
      ],
      "stateMutability": "view",
      "type": "function"
    },
    {
      "inputs": [
        {
          "internalType": "uint8",
          "name": "row",
          "type": "uint8"
        },
        {
          "internalType": "uint8",
          "name": "col",
          "type": "uint8"
        }
      ],
      "name": "makeMove",
      "outputs": [],
      "stateMutability": "nonpayable",
      "type": "function"
    },
    {
      "inputs": [],
      "name": "winner",
      "outputs": [
        {
          "internalType": "address",
          "name": "",
          "type": "address"
        }
      ],
      "stateMutability": "view",
      "type": "function"
    }
  ],
  "bytecode": "0x6080604052348015600f57600080fd5b50600080546001600160a01b0319169055600180546001600160a81b0319169055610a628061003f6000396000f3fe608060405234801561001057600080fd5b50600436106100625760003560e01c80632420f7f0146100675780632f6fe396146100855780635367762c146100a95780635e24b0f1146100f5578063dfbf53ae1461010a578063e3450e131461011d575b600080fd5b61006f610130565b60405161007c919061093d565b60405180910390f35b60015461009990600160a01b900460ff1681565b604051901515815260200161007c565b6100dd6100b73660046109b6565b60026020908152600092835260408084209091529082529020546001600160a01b031681565b6040516001600160a01b03909116815260200161007c565b6101086101033660046109b6565b6101e0565b005b6001546100dd906001600160a01b031681565b6000546100dd906001600160a01b031681565b6101386108f2565b6101406108f2565b60005b60038160ff1610156101da5760005b60038160ff1610156101d15760ff8083166000818152600260209081526040808320948616835293905291909120546001600160a01b03169084906003811061019d5761019d6109e9565b60200201518260ff16600381106101b6576101b66109e9565b6001600160a01b039092166020929092020152600101610152565b50600101610143565b50919050565b600154600160a01b900460ff16156102385760405162461bcd60e51b815260206004820152601660248201527511d85b59481a185cc8185b1c9958591e48195b99195960521b60448201526064015b60405180910390fd5b818160038260ff16108015610250575060038160ff16105b61028f5760405162461bcd60e51b815260206004820152601060248201526f24b73b30b634b2103837b9b4ba34b7b760811b604482015260640161022f565b60ff8083166000908152600260209081526040808320938516835292905220546001600160a01b0316156102fe5760405162461bcd60e51b81526020600482015260166024820152752837b9b4ba34b7b71030b63932b0b23c903a30b5b2b760511b604482015260640161022f565b6000546001600160a01b031633036103585760405162461bcd60e51b815260206004820152601d60248201527f43616e6e6f74206d616b6520636f6e7365637574697665206d6f766573000000604482015260640161022f565b60ff84811660008181526002602090815260408083209488168084529482528083208054336001600160a01b031991821681179092558454168117909355805193845290830193909352917f10ac166a969b6ae9b140c9d6b88c6c4e565e4fc22f858bf92f1542535f0f161a910160405180910390a26103d9848433610483565b15610433576001805460ff60a01b19339081166001600160a81b031990921691909117600160a01b179091556040517f78b3193cf31372e77b1f3045481681f86e18e346de12ae7f1ecc322ff0adf1a490600090a261047d565b61043b610884565b1561047d576001805460ff60a01b1916600160a01b1790556040517fa4c4401dace3a98737dc94c84d18bc94944a6d3d88571034bb81436527b1546c90600090a15b50505050565b60ff831660009081526002602090815260408083208380529091528120546001600160a01b0383811691161480156104e4575060ff84166000908152600260209081526040808320600184529091529020546001600160a01b038381169116145b8015610518575060ff841660009081526002602081815260408084209284529190529020546001600160a01b038381169116145b156105255750600161087d565b60ff831660009081527fac33ff75c19e70fe83507db0d683fd3465c996598dc972688b7ace676c89077b60205260409020546001600160a01b0383811691161480156105ad575060ff831660009081527fe90b7bceb6e7df5418fb78d8ee546e97c83a08bbccc01a0644d599ccd2a7c2e060205260409020546001600160a01b038381169116145b80156105f5575060ff831660009081527f679795a0195a1b76cdebb7c51d74e058aee92919b8c3389af86ef24535e8a28c60205260409020546001600160a01b038381169116145b156106025750600161087d565b8260ff168460ff1614801561066b5750600080527fac33ff75c19e70fe83507db0d683fd3465c996598dc972688b7ace676c89077b6020527f6ee3efecae883df2d7ccda22610b4ca771a299e707cb0d65c4ec97dc4e6668ad546001600160a01b038381169116145b80156106cc575060016000527fe90b7bceb6e7df5418fb78d8ee546e97c83a08bbccc01a0644d599ccd2a7c2e06020527f7fc34355029a161f70aeee0386d9a2fb9a2518cf3f40dfaefce746c3a701bdb7546001600160a01b038381169116145b801561072d575060026000527f679795a0195a1b76cdebb7c51d74e058aee92919b8c3389af86ef24535e8a28c6020527fe8a7703a24060180a3c4dd84ff9fa3d610431a897140bc76eed0f73b61709532546001600160a01b038381169116145b1561073a5750600161087d565b61074483856109ff565b60ff1660021480156107ab575060026000527fac33ff75c19e70fe83507db0d683fd3465c996598dc972688b7ace676c89077b6020527f7e955e967b2c774fdefd0a6f70cfe851a750a8f48fafda490b70fc148e628d06546001600160a01b038381169116145b801561080c575060016000527fe90b7bceb6e7df5418fb78d8ee546e97c83a08bbccc01a0644d599ccd2a7c2e06020527f7fc34355029a161f70aeee0386d9a2fb9a2518cf3f40dfaefce746c3a701bdb7546001600160a01b038381169116145b801561086c5750600080527f679795a0195a1b76cdebb7c51d74e058aee92919b8c3389af86ef24535e8a28c6020527f82099653b86726a611c31249f8b2da220aad2454c86e465b405d9716e8ffc6e9546001600160a01b038381169116145b156108795750600161087d565b5060005b9392505050565b6000805b60038160ff1610156108ea5760005b60038160ff1610156108e15760ff8083166000908152600260209081526040808320938516835292905220546001600160a01b03166108d95760009250505090565b600101610897565b50600101610888565b506001905090565b60405180606001604052806003905b61090961091f565b8152602001906001900390816109015790505090565b60405180606001604052806003906020820280368337509192915050565b6101208101818360005b60038110156109975781518360005b600381101561097e5782516001600160a01b0316825260209283019290910190600101610956565b5050506060929092019160209190910190600101610947565b50505092915050565b803560ff811681146109b157600080fd5b919050565b600080604083850312156109c957600080fd5b6109d2836109a0565b91506109e0602084016109a0565b90509250929050565b634e487b7160e01b600052603260045260246000fd5b60ff8181168382160190811115610a2657634e487b7160e01b600052601160045260246000fd5b9291505056fea26469706673582212208329fa3f3135ca62493eb37c12bf8de973bffc9685604684fe6b555466a9b29c64736f6c634300081c0033",
  "linkReferences": {},
  "deployedLinkReferences": {}
}