{
  "_format": "hh-sol-artifact-1",
  "contractName": "TicTacToeFactory",
  "sourceName": "contracts/TicTacToeFactory.sol",
  "abi": [
    {
      "inputs": [
        {
          "internalType": "address",
          "name": "_gameMaster",
          "type": "address"
        }
      ],
      "stateMutability": "nonpayable",
      "type": "constructor"
    },
    {
      "inputs": [],
      "name": "FailedDeployment",
      "type": "error"
    },
    {
      "inputs": [
        {
          "internalType": "uint256",
          "name": "balance",
          "type": "uint256"
        },
        {
          "internalType": "uint256",
          "name": "needed",
          "type": "uint256"
        }
      ],
      "name": "InsufficientBalance",
      "type": "error"
    },
    {
      "anonymous": false,
      "inputs": [
        {
          "indexed": true,
          "internalType": "address",
          "name": "gameAddress",
          "type": "address"
        }
      ],
      "name": "GameCreated",
      "type": "event"
    },
    {
      "inputs": [],
      "name": "createGame",
      "outputs": [
        {
          "internalType": "address",
          "name": "",
          "type": "address"
        }
      ],
      "stateMutability": "nonpayable",
      "type": "function"
    },
    {
      "inputs": [],
      "name": "gameMaster",
      "outputs": [
        {
          "internalType": "address",
          "name": "",
          "type": "address"
        }
      ],
      "stateMutability": "view",
      "type": "function"
    }
  ],
  "bytecode": "0x6080604052348015600f57600080fd5b5060405161029b38038061029b833981016040819052602c9160b5565b6001600160a01b03811660915760405162461bcd60e51b8152602060048201526024808201527f466163746f72793a20496e76616c69642067616d65206d6173746572206164646044820152637265737360e01b606482015260840160405180910390fd5b600080546001600160a01b0319166001600160a01b039290921691909117905560e3565b60006020828403121560c657600080fd5b81516001600160a01b038116811460dc57600080fd5b9392505050565b6101a9806100f26000396000f3fe608060405234801561001057600080fd5b50600436106100365760003560e01c80637255d7291461003b578063bdf84ae71461005f575b600080fd5b610043610072565b6040516001600160a01b03909116815260200160405180910390f35b600054610043906001600160a01b031681565b60008054819061008a906001600160a01b03166100c6565b6040519091506001600160a01b038216907f4f0d1d413a983b9df8ab6ab954635b186a1e9a09ee6dc1b43263ddbf4841226790600090a2919050565b60006100d38260006100d9565b92915050565b6000814710156101095760405163cf47918160e01b81524760048201526024810183905260440160405180910390fd5b763d602d80600a3d3981f3363d3d373d3d3d363d730000008360601b60e81c176000526e5af43d82803e903d91602b57fd5bf38360781b176020526037600983f090506001600160a01b0381166100d35760405163b06ebf3d60e01b815260040160405180910390fdfea2646970667358221220a1237c5b51bbc0f4e0dc38240d0c0095ae5ee550166d72b6a2b5a6190770354f64736f6c634300081c0033",
  "linkReferences": {},
  "deployedLinkReferences": {}
}